{
  "contractName": "CreditAgreement",
  "abi": [
    {
      "inputs": [
        {
          "internalType": "address",
          "name": "_borrower",
          "type": "address"
        },
        {
          "internalType": "address[]",
          "name": "_lenders",
          "type": "address[]"
        },
        {
          "internalType": "uint256[]",
          "name": "_lenderShares",
          "type": "uint256[]"
        },
        {
          "internalType": "uint256",
          "name": "_amount",
          "type": "uint256"
        },
        {
          "internalType": "uint256",
          "name": "_closingDate",
          "type": "uint256"
        }
      ],
      "payable": false,
      "stateMutability": "nonpayable",
      "type": "constructor"
    },
    {
      "constant": false,
      "inputs": [
        {
          "internalType": "address",
          "name": "facilityAddress",
          "type": "address"
        }
      ],
      "name": "addFacility",
      "outputs": [],
      "payable": false,
      "stateMutability": "nonpayable",
      "type": "function"
    },
    {
      "constant": false,
      "inputs": [],
      "name": "signAsABorrower",
      "outputs": [],
      "payable": false,
      "stateMutability": "nonpayable",
      "type": "function"
    },
    {
      "constant": false,
      "inputs": [],
      "name": "signAsALender",
      "outputs": [
        {
          "internalType": "bool",
          "name": "",
          "type": "bool"
        }
      ],
      "payable": false,
      "stateMutability": "nonpayable",
      "type": "function"
    },
    {
      "constant": true,
      "inputs": [],
      "name": "hasEveryoneSigned",
      "outputs": [
        {
          "internalType": "bool",
          "name": "",
          "type": "bool"
        }
      ],
      "payable": false,
      "stateMutability": "view",
      "type": "function"
    }
  ],
  "bytecode": "0x608060405234801561001057600080fd5b50604051610819380380610819833981810160405260a081101561003357600080fd5b81019080805190602001909291908051604051939291908464010000000082111561005d57600080fd5b8382019150602082018581111561007357600080fd5b825186602082028301116401000000008211171561009057600080fd5b8083526020830192505050908051906020019060200280838360005b838110156100c75780820151818401526020810190506100ac565b50505050905001604052602001805160405193929190846401000000008211156100f057600080fd5b8382019150602082018581111561010657600080fd5b825186602082028301116401000000008211171561012357600080fd5b8083526020830192505050908051906020019060200280838360005b8381101561015a57808201518184015260208101905061013f565b505050509050016040526020018051906020019092919080519060200190929190505050336000806101000a81548173ffffffffffffffffffffffffffffffffffffffff021916908373ffffffffffffffffffffffffffffffffffffffff16021790555084600160006101000a81548173ffffffffffffffffffffffffffffffffffffffff021916908373ffffffffffffffffffffffffffffffffffffffff16021790555060008090505b60028054905081101561031a576002604051806060016040528087848151811061022b57fe5b602002602001015173ffffffffffffffffffffffffffffffffffffffff16815260200186848151811061025a57fe5b60200260200101518152602001600015158152509080600181540180825580915050906001820390600052602060002090600302016000909192909190915060008201518160000160006101000a81548173ffffffffffffffffffffffffffffffffffffffff021916908373ffffffffffffffffffffffffffffffffffffffff1602179055506020820151816001015560408201518160020160006101000a81548160ff0219169083151502179055505050508080600101915050610205565b50816003819055508060058190555050505050506104dc8061033d6000396000f3fe608060405234801561001057600080fd5b506004361061004c5760003560e01c80635bb9860814610051578063a34b0d3914610073578063d3e0903114610095578063ffdee8b41461009f575b600080fd5b6100596100e3565b604051808215151515815260200191505060405180910390f35b61007b610174565b604051808215151515815260200191505060405180910390f35b61009d610260565b005b6100e1600480360360208110156100b557600080fd5b81019080803573ffffffffffffffffffffffffffffffffffffffff16906020019092919050505061033e565b005b6000801515600160149054906101000a900460ff16151514156101095760009050610171565b60008090505b60028054905081101561016b57600015156002828154811061012d57fe5b906000526020600020906003020160020160009054906101000a900460ff161515141561015e576000915050610171565b808060010191505061010f565b50600190505b90565b600080600090505b60028054905081101561025c576002818154811061019657fe5b906000526020600020906003020160000160009054906101000a900473ffffffffffffffffffffffffffffffffffffffff1673ffffffffffffffffffffffffffffffffffffffff163373ffffffffffffffffffffffffffffffffffffffff16141561024f5760016002828154811061020a57fe5b906000526020600020906003020160020160006101000a81548160ff0219169083151502179055506001151561023e6100e3565b1515141561024e57426004819055505b5b808060010191505061017c565b5090565b600160009054906101000a900473ffffffffffffffffffffffffffffffffffffffff1673ffffffffffffffffffffffffffffffffffffffff163373ffffffffffffffffffffffffffffffffffffffff1614610306576040517f08c379a000000000000000000000000000000000000000000000000000000000815260040180806020018281038252602f81526020018061044d602f913960400191505060405180910390fd5b60018060146101000a81548160ff0219169083151502179055506001151561032c6100e3565b1515141561033c57426004819055505b565b6000809054906101000a900473ffffffffffffffffffffffffffffffffffffffff1673ffffffffffffffffffffffffffffffffffffffff163373ffffffffffffffffffffffffffffffffffffffff16146103e3576040517f08c379a000000000000000000000000000000000000000000000000000000000815260040180806020018281038252602c81526020018061047c602c913960400191505060405180910390fd5b60068190806001815401808255809150509060018203906000526020600020016000909192909190916101000a81548173ffffffffffffffffffffffffffffffffffffffff021916908373ffffffffffffffffffffffffffffffffffffffff160217905550505056fe4f6e6c7920626f72726f77657220697320616c6c6f77656420746f20706572666f726d207468697320616374696f6e4f6e6c79206f776e657220697320616c6c6f77656420746f20706572666f726d207468697320616374696f6ea265627a7a72315820754ffb9541a6aa5f4190e6ba3fe27b2f13acb96511f2f11aac6e832587cf530064736f6c63430005100032",
  "source": "pragma solidity ^0.5.0;\n\nimport \"./Facility.sol\";\n\ncontract CreditAgreement {\n\n    address owner;\n\n    address borrower;\n    bool hasBorrowerSigned;\n\n    struct Lender {\n        address lender;\n        uint share;\n        bool hasSigned;\n    }\n    Lender[] lenders;\n\n    uint amount;\n\n    uint agreementDate;\n    uint closingDate;\n\n    Facility[] facilities;\n\n    constructor(address _borrower, address[] memory _lenders, uint[] memory _lenderShares, uint _amount, uint _closingDate ) public {\n        owner = msg.sender;\n        borrower = _borrower;\n        for(uint i = 0; i < lenders.length; i++) {\n            lenders.push(Lender({lender: _lenders[i], share: _lenderShares[i], hasSigned: false}));\n        }\n        amount = _amount;\n        closingDate = _closingDate;\n    }\n\n    modifier onlyOwner() {\n        require(msg.sender == owner, \"Only owner is allowed to perform this action\");\n        _;\n    }\n\n    modifier onlyBorrower() {\n        require(msg.sender == borrower, \"Only borrower is allowed to perform this action\");\n        _;\n    }\n\n    modifier onlyLender() {\n        bool isLender = false;\n        for(uint i = 0; i < lenders.length; i++) {\n            if(msg.sender == lenders[i].lender) {\n                isLender = true;\n                break;\n            }\n        }\n        require(isLender == true, \"Only lender is allowed to perform this action\");\n        _;\n    }\n\n    function addFacility(address facilityAddress) public onlyOwner {\n        facilities.push(Facility(facilityAddress));\n    }\n\n    function signAsABorrower() public onlyBorrower {\n        hasBorrowerSigned = true;\n        if(hasEveryoneSigned() == true) {\n            agreementDate = now;\n        }\n    }\n\n    function signAsALender() public returns(bool){\n    //function signAsALender() public oblyBorrower {\n        for(uint i = 0; i < lenders.length; i++) {\n            if(msg.sender == lenders[i].lender) {\n                lenders[i].hasSigned = true;\n                if(hasEveryoneSigned() == true) {\n                    agreementDate = now;\n                }\n            }\n        }\n    }\n\n    function hasEveryoneSigned() public view returns(bool) {\n        if(hasBorrowerSigned == false) {\n            return false;\n        }\n        for(uint i = 0; i < lenders.length; i++) {\n            if(lenders[i].hasSigned == false) {\n                return false;\n            }\n        }\n        return true;\n    }\n\n}",
  "sourcePath": "/home/abhi/Abhishek/Desk/SAED/project1/Credit-Agreement/contracts/CreditAgreement.sol",
  "compiler": {
    "name": "solc",
    "version": "0.5.16+commit.9c3226ce.Emscripten.clang"
  },
  "schemaVersion": "3.0.21",
  "updatedAt": "2020-02-17T23:47:29.531Z",
  "devdoc": {
    "methods": {}
  },
  "userdoc": {
    "methods": {}
  }
}