{
  "contractName": "Facility",
  "abi": [
    {
      "inputs": [
        {
          "internalType": "uint256",
          "name": "_amount",
          "type": "uint256"
        },
        {
          "internalType": "uint256",
          "name": "_fee",
          "type": "uint256"
        },
        {
          "internalType": "uint256",
          "name": "_maturityDate",
          "type": "uint256"
        },
        {
          "internalType": "uint256",
          "name": "_expiryDate",
          "type": "uint256"
        }
      ],
      "payable": false,
      "stateMutability": "nonpayable",
      "type": "constructor"
    },
    {
      "constant": true,
      "inputs": [],
      "name": "getInfo",
      "outputs": [
        {
          "internalType": "uint256",
          "name": "",
          "type": "uint256"
        },
        {
          "internalType": "uint256",
          "name": "",
          "type": "uint256"
        },
        {
          "internalType": "uint256",
          "name": "",
          "type": "uint256"
        },
        {
          "internalType": "uint256",
          "name": "",
          "type": "uint256"
        }
      ],
      "payable": false,
      "stateMutability": "view",
      "type": "function"
    }
  ],
  "bytecode": "0x608060405234801561001057600080fd5b506040516101833803806101838339818101604052608081101561003357600080fd5b8101908080519060200190929190805190602001909291908051906020019092919080519060200190929190505050336000806101000a81548173ffffffffffffffffffffffffffffffffffffffff021916908373ffffffffffffffffffffffffffffffffffffffff160217905550836001819055508260028190555081600381905550806004819055505050505060b3806100d06000396000f3fe6080604052348015600f57600080fd5b506004361060285760003560e01c80635a9b0b8914602d575b600080fd5b6033605e565b6040518085815260200184815260200183815260200182815260200194505050505060405180910390f35b60008060008060015460025460035460045493509350935093509091929356fea265627a7a723158201b57a380be764a356ee38815f526d488e38f1fe54a0515f9c4c2786f29d7d8a564736f6c63430005100032",
  "source": "pragma solidity ^0.5.0;\n\ncontract Facility {\n\n    address owner;\n\n    uint amount;\n    uint fee;\n\n    uint maturityDate;\n    uint expiryDate;\n\n    constructor(uint _amount, uint _fee, uint _maturityDate, uint _expiryDate) public {\n        owner = msg.sender;\n        amount = _amount;\n        fee = _fee;\n        maturityDate = _maturityDate;\n        expiryDate = _expiryDate;\n    }\n\n    function getInfo() public view returns(uint, uint, uint, uint) {\n        return (amount, fee, maturityDate, expiryDate);\n    }\n\n}",
  "sourcePath": "/home/abhi/Abhishek/Desk/SAED/project1/Credit-Agreement/contracts/Facility.sol",
  "compiler": {
    "name": "solc",
    "version": "0.5.16+commit.9c3226ce.Emscripten.clang"
  },
  "schemaVersion": "3.0.21",
  "updatedAt": "2020-02-17T23:47:29.538Z",
  "devdoc": {
    "methods": {}
  },
  "userdoc": {
    "methods": {}
  }
}