{
  "contractName": "RevolverFacility",
  "abi": [
    {
      "inputs": [
        {
          "internalType": "uint256",
          "name": "_amount",
          "type": "uint256"
        },
        {
          "internalType": "uint256",
          "name": "_fee",
          "type": "uint256"
        },
        {
          "internalType": "uint256",
          "name": "_maturityDate",
          "type": "uint256"
        },
        {
          "internalType": "uint256",
          "name": "_expiryDate",
          "type": "uint256"
        }
      ],
      "payable": false,
      "stateMutability": "nonpayable",
      "type": "constructor"
    },
    {
      "constant": true,
      "inputs": [],
      "name": "getInfo",
      "outputs": [
        {
          "internalType": "uint256",
          "name": "",
          "type": "uint256"
        },
        {
          "internalType": "uint256",
          "name": "",
          "type": "uint256"
        },
        {
          "internalType": "uint256",
          "name": "",
          "type": "uint256"
        },
        {
          "internalType": "uint256",
          "name": "",
          "type": "uint256"
        }
      ],
      "payable": false,
      "stateMutability": "view",
      "type": "function"
    }
  ],
  "bytecode": "0x608060405234801561001057600080fd5b5060405161018b38038061018b8339818101604052608081101561003357600080fd5b810190808051906020019092919080519060200190929190805190602001909291908051906020019092919050505083838383336000806101000a81548173ffffffffffffffffffffffffffffffffffffffff021916908373ffffffffffffffffffffffffffffffffffffffff16021790555083600181905550826002819055508160038190555080600481905550505050505050505060b3806100d86000396000f3fe6080604052348015600f57600080fd5b506004361060285760003560e01c80635a9b0b8914602d575b600080fd5b6033605e565b6040518085815260200184815260200183815260200182815260200194505050505060405180910390f35b60008060008060015460025460035460045493509350935093509091929356fea265627a7a72315820d9401749d94d7d3cd5edc1173b5aa22aaabbf12fb49792915652607c5f82f88964736f6c63430005100032",
  "source": "pragma solidity ^0.5.0;\n\nimport \"./Facility.sol\";\n\ncontract RevolverFacility is Facility {\n\n    constructor(uint _amount, uint _fee, uint _maturityDate, uint _expiryDate)\n        Facility(_amount, _fee, _maturityDate, _expiryDate) public {\n    }\n\n}",
  "sourcePath": "/home/abhi/Abhishek/Desk/SAED/project1/Credit-Agreement/contracts/RevolverFacility.sol",
  "compiler": {
    "name": "solc",
    "version": "0.5.16+commit.9c3226ce.Emscripten.clang"
  },
  "schemaVersion": "3.0.21",
  "updatedAt": "2020-02-17T23:47:29.546Z",
  "devdoc": {
    "methods": {}
  },
  "userdoc": {
    "methods": {}
  }
}