{
  "contractName": "TermLoanFacility",
  "abi": [
    {
      "inputs": [
        {
          "internalType": "uint256",
          "name": "_amount",
          "type": "uint256"
        },
        {
          "internalType": "uint256",
          "name": "_fee",
          "type": "uint256"
        },
        {
          "internalType": "uint256",
          "name": "_maturityDate",
          "type": "uint256"
        },
        {
          "internalType": "uint256",
          "name": "_expiryDate",
          "type": "uint256"
        },
        {
          "internalType": "enum TermLoanFacility.AMORTIZATION_SCHEDULE",
          "name": "_amortizationSchedule",
          "type": "uint8"
        },
        {
          "internalType": "uint256",
          "name": "_closingDate",
          "type": "uint256"
        }
      ],
      "payable": false,
      "stateMutability": "nonpayable",
      "type": "constructor"
    },
    {
      "constant": true,
      "inputs": [],
      "name": "getInfo",
      "outputs": [
        {
          "internalType": "uint256",
          "name": "",
          "type": "uint256"
        },
        {
          "internalType": "uint256",
          "name": "",
          "type": "uint256"
        },
        {
          "internalType": "uint256",
          "name": "",
          "type": "uint256"
        },
        {
          "internalType": "uint256",
          "name": "",
          "type": "uint256"
        }
      ],
      "payable": false,
      "stateMutability": "view",
      "type": "function"
    }
  ],
  "bytecode": "0x608060405234801561001057600080fd5b506040516101cb3803806101cb833981810160405260c081101561003357600080fd5b8101908080519060200190929190805190602001909291908051906020019092919080519060200190929190805190602001909291908051906020019092919050505085858585336000806101000a81548173ffffffffffffffffffffffffffffffffffffffff021916908373ffffffffffffffffffffffffffffffffffffffff160217905550836001819055508260028190555081600381905550806004819055505050505081600560006101000a81548160ff021916908360038111156100f857fe5b02179055508060068190555050505050505060b3806101186000396000f3fe6080604052348015600f57600080fd5b506004361060285760003560e01c80635a9b0b8914602d575b600080fd5b6033605e565b6040518085815260200184815260200183815260200182815260200194505050505060405180910390f35b60008060008060015460025460035460045493509350935093509091929356fea265627a7a72315820d630f88f66d2524cce407590b11c975d017bae02739fe718804b23df0f99448864736f6c63430005100032",
  "source": "pragma solidity ^0.5.0;\n\nimport \"./Facility.sol\";\n\ncontract TermLoanFacility is Facility {\n\n    enum AMORTIZATION_SCHEDULE {\n        MONTHLY, QUARTERLY, SEMI_ANNUALLY, ANNUALLY\n    }\n\n    AMORTIZATION_SCHEDULE amortizationSchedule;\n\n    uint closingDate;\n\n    constructor(uint _amount, uint _fee, uint _maturityDate, uint _expiryDate, AMORTIZATION_SCHEDULE _amortizationSchedule, uint _closingDate)\n    Facility(_amount, _fee, _maturityDate, _expiryDate) public {\n        amortizationSchedule = _amortizationSchedule;\n        closingDate = _closingDate;\n    }\n\n}",
  "sourcePath": "/home/abhi/Abhishek/Desk/SAED/project1/Credit-Agreement/contracts/TermLoanFacility.sol",
  "compiler": {
    "name": "solc",
    "version": "0.5.16+commit.9c3226ce.Emscripten.clang"
  },
  "schemaVersion": "3.0.21",
  "updatedAt": "2020-02-17T23:47:29.547Z",
  "devdoc": {
    "methods": {}
  },
  "userdoc": {
    "methods": {}
  }
}